:1009AD004375727461696E204F70656E0043757288
:0B09BD007461696E20636C6F7365004D
:040A0C0002120000D2
:08098500C285D2847F647E006C
:10098D00E4FDFCC3ED9FEC9E5015E4FBFA0BBB00A0
:0F099D00010ABA04F8BBFBF50DBD00010C80E4A4
:0109AC002228
:0C09C8007519017FE87E0312098D7F0184
:0A09D4008FA0C286120985C284229A
:0A0A02008FA0D286120985C284225B
:1009DE007F381209D47F0E1209D47F011209D47FF9
:0409EE00800209D4A6
:06095A008B1A8A1B891CA8
:10096000E4F51DF51EAB1AAA1BA91C851E82851D68
:100970008312092DFF600D120A02051EE51E70E5A7
:04098000051D80E1F0
:010984002250
:0F09F200D2B2C2B3D2B320B4FDC2B2AF90C2B37F
:010A010022D2
:10080000E4F516F517F518F51975A0FF1209DEE4E1
:10081000F512F513C2B5C2B61209F27514008F15A0
:10082000C3E5159496E51464809480500875120011
:100830007513018005E4F512F513E5194518601CE0
:10084000E517640145167006E513451260CAE51701
:1008500045167008E5136401451260BCE5134512A6
:1008600070197BFF7A0979AD12095AD2B5C2B675F3
:1008700016007517017518001209C8E513640145C3
:100880001270177BFF7A0979BA12095AC2B5D2B62B
:10089000E4F516F517F5181209C8C2B5C2B6020874
:0108A000183F
:030000000208A152
:0C08A100787FE4F6D8FD75811E0208E89F
:10092D00BB010CE58229F582E5833AF583E022507F
:10093D0006E92582F8E622BBFE06E92582F8E222C9
:0D094D00E58229F582E5833AF583E49322E3
:1008AD00020800E493A3F8E493A34003F68001F259
:1008BD0008DFF48029E493A3F85407240CC8C3334C
:1008CD00C4540F4420C8834004F456800146F6DF1B
:1008DD00E4800B0102040810204080900A0CE47E95
:1008ED00019360BCA3FF543F30E509541FFEE49310
:1008FD00A360010ECF54C025E060A840B8E493A3D7
:10090D00FAE493A3F8E493A3C8C582C8CAC583CA01
:10091D00F0A3C8C582C8CAC583CADFE9DEE780BEB9
:010A100000E5
:00000001FF
